:020000040800F2
:10000000E8090020590100087F010008810100086B
:1000100000000000000000000000000000000000E0
:100020000000000000000000000000008301000844
:1000300000000000000000008501000887010008A2
:1000400089010008000000008901000889010008FA
:100050008901000889010008890100088901000858
:1000600000000000A11300088901000889010008B0
:100070002F12000889010008890100080000000013
:10008000890100080000000000000000890100084C
:100090008901000889010008011A000805160008F6
:1000A0008901000889010008890100088901000808
:1000B0008901000800F002F800F03EF80CA030C8FA
:1000C000083824182D18A246671EAB4654465D46D4
:1000D000AC4201D100F030F87E460F3E0FCCB64660
:1000E0000126334200D0FB1AA246AB4633431847E1
:1000F000602E0000802E0000103A02D378C878C12C
:10010000FAD8520701D330C830C101D504680C6059
:10011000704700000023002400250026103A01D378
:1001200078C1FBD8520700D330C100D50B607047AF
:100130001FB51FBD10B510BD00F0FAFF1146FFF747
:10014000F7FF01F00FFF01F012F803B4FFF7F2FF21
:1001500003BC01F065F800000F4880F308880F48E1
:100160000168090E0E4A914205D10E480E49016000
:100170000E480F4901600F4880470F480047FEE7CF
:10018000FEE7FEE7FEE7FEE7FEE700000B480C494E
:100190000C4A0D4B70470000E809002004000000E5
:1001A0001F00000018100240010000000000014084
:1001B00000000000FD190008B5000008E803002059
:1001C000E8090020E8050020E80500207047704796
:1001D000704700000246C80FC00781434B0030B58E
:1001E0004B405B009B0D20D01923DB06C91801236F
:1001F0001B05994220DB0324A40704251346AB40CA
:100200000BD3002B04D1EB0613409B00E34204D434
:1002100001246407002312195941FF231B05994249
:100220000BD2C9000143500F09E0CB0204D50143B2
:100230000803024305D0054830BDFF21C905084326
:1002400030BD084607210905884330BD0000C07F46
:10025000F0B50C46871A9C410D46861A9D4103D283
:10026000C01BA141D21963410D0D1F0DC94EEC1BDE
:10027000AE435CD07F057F0D0026002F51D02D05A9
:10028000AC46A943DD020123ED0A1B051D432023D3
:100290001B1B24D41746E740381871412F46E7400E
:1002A000CC199D402818314661410C0D27D161447D
:1002B0009A4013D50023401C594152000ED14008EA
:1002C000400001224B005205D34207D305204007CE
:1002D000C14201D5B04900E0B0493046F0BD6B00E5
:1002E000002A00D001229A181F23203C1B1B01D595
:1002F000002302E0E540281871410C0DD7D00124FD
:1003000024050919C407CD0740084908E40F28430C
:100310006144002CD5D00024401C61419A40D0D1CA
:10032000CDE76A05520DD9D1C90FC907D5E79C4D54
:100330004E00002801D0012400E0002434195F00A1
:10034000002A01D0012600E00026BE19954FAC42DC
:100350000CD8AE420AD8B44206D001256D05EC4255
:10036000BCD010461946F0BD9942FCD00020394659
:10037000F0BDF0B51FB40C460F46811A9F412546CB
:10038000861A9D4106D20125ED076F40401ABC41F7
:1003900052187B41210D1E0D8D1BAC467D4D8D43AA
:1003A0007ED075056D0D7CD00D05AE46AC431B03AC
:1003B0001B0B794D52429D41202366469B1B14D353
:1003C0001746F740381800260090744160462F46C3
:1003D0000741E41900989D402818664116D47146DB
:1003E00071189A4025D5012320E093182A466A41C6
:1003F0005200002B00D0521C1E23203E9B1B002BC2
:1004000061DD3541EE1728186641E8D500187641C0
:100410005B1C9A4000D3401C4B05F3181524E340A5
:1004200010D3002B52D071467118D30FC01802D3CD
:10043000491C05B0F0BD0123DB079A42F9D1400801
:100440004000F6E701225205B21801D1002853D02E
:100450000123CC0ADB029943891E002A08D1020C31
:1004600003D0020C0004103902E0024600202039BB
:100470000023550B05D112020823550B01D152015F
:100480000D23550C01D112011B1DD50C01D1920079
:100490009B1C150D01D152005B1C2025EE1A01E0BA
:1004A0002CE022E00546F54015439840CA1AE107C2
:1004B00069181305C918002ABBDA03204007081879
:1004C000C10FC9070FE071466118B2E7F107400894
:1004D0000843711071444A000CD001235B059A4215
:1004E000A7D2C90FC9070020A3E74905490D26D1A6
:1004F000002001E00028F4D100219AE7284D660091
:10050000002801D0012100E0002171185F00002ABD
:1005100001D0012600E00026BE19224FA94210D8C2
:10052000AE420ED8B14208D001256D05E94206D091
:100530001946A802414010467BE79C4201D0214663
:1005400077E70020394674E710B50C465C4005D5C6
:100550000124E4076340FFF70CFF10BDFFF778FEAE
:1005600010BD30B40C465C4004D50124E407634060
:1005700030BC6DE630BCFCE670B50124E407614098
:100580000D465D4002D4FFF763FE70BD6340FFF788
:10059000F0FE70BDFF0700000000F0FF0000F07FDC
:1005A0000000E0FF0000F87FF0B5F94D0C091E09CE
:1005B0002C402E402F468BB0A7437DD0B543FCD0B6
:1005C000002E7AD0002CFCD00D465D40ED0F254367
:1005D000AC1BFF25AD0464190894C502440DC90283
:1005E0002143500DDC0204430120C00701430443B2
:1005F000D2020191200C110C00958C460104234677
:100600008B430A9161460904E24D8A430991010A2C
:100610007D4449198039097805464D4301266D18F6
:10062000F605751B6943C90C640B891C4C4364189F
:10063000B5012C1B250C2E04B4434C434D43210C17
:10064000691889090591009DE90701D00121C907B1
:1006500004912C4601996708CD072F434C08059D4E
:10066000E10B4D432D0C29466646754302950D4618
:1006700045432E46029D7D1BB44100950D465D43CA
:1006800001942C0C2F040D465543AE462D0C3D43D2
:10069000029503947546049C2D04641B049406D2B1
:1006A000029C039D641C002675410395029401ACD5
:1006B00070CC009F7D1B01E03EE162E1B441090482
:1006C0000095079101940599A4086143090C0C4613
:1006D0004443650BE7040C4666467443A646640B28
:1006E0003C43039502947446049DE4042C1B04943B
:1006F00006D2029C039D641C00267541039502945A
:1007000001AC70CC009F7D1BB44101940C465C434E
:100710000095650FE7000C465443A646640F3C4322
:10072000039502947446049DE4002C1B049406D2A5
:10073000029C039D641C002675410395029401AC44
:1007400070CC009F7D1BB441AE09AF06049DC9006B
:10075000AD092F43049DA406AD060495079D3443BF
:1007600069180791059DE10B4D432D0C29466646FE
:10077000754302950D4645432E46029D7D1BB441AF
:1007800000950D465D4301942C0C2F040D465543F6
:10079000AE462D0C3D43029503947546049C2D04F2
:1007A000641B049406D2029C039D641C00267541C0
:1007B0000395029401AC70CC009F7D1BB441019461
:1007C0008C050694079C890A611800950791019C85
:1007D0000599A4086143090C0D464543680BEF04D5
:1007E0000D46644665436C0B3C43049FED047D1B42
:1007F000AC4602D20025641C6841009E019D371B57
:1008000085410846584301950C46460FC5005443A0
:10081000600F28436546E4002C1B02D20025401CD3
:100820006E41019D3F1AB5412846BD098006284307
:100830008446A009BF064E020699A406761807430F
:10084000079D002068410A99079019430020099BE1
:1008500000906046FF1913434041E20F64003A43A1
:10086000A4460446D71A8C41A04203D90120009027
:1008700020463A46C70F941840416246D20F2243A1
:10088000644664000494009CBE466400D71AA446E3
:10089000044602978C417746002F01D1A04204D92B
:1008A0006046401C8446029A2046C40FA64694180F
:1008B0004041049A0546D20F224364466400D31A8D
:1008C0008D417146002901D1A84202D928461A4615
:1008D000641C10430122002800D01643610200204E
:1008E000079B891904465C410223002C02DB49184E
:1008F00013466441089DCE0A2D145D194B0567050A
:10090000E10A2C050D1908993E43C9076940002BDF
:1009100008D0934006D30022761C5141002B01D110
:10092000760876001C4A002D43DB154241D0AA43CD
:100930003FD030460BB0F0BD06180D464D41174C68
:100940007642AC411AD395181C465C41134A6D425D
:10095000A24113D3012252054C00D4420AD15C00BB
:10096000D4420BD04B4002D592021143E2E749003A
:100970004908DFE75940C90FC90718E000200849B6
:10098000D8E7054801420DD10342F7D0F2E7000055
:100990000000FF07E82700000000F07F0000E0FFF4
:1009A0000000F87F114859400143C0124140002027
:1009B000C0E70123089A9B069A4205DC03225207EE
:1009C0008918C90FC907B5E7052252078918074AD0
:1009D0001143D2125140ADE770B515461C46024690
:1009E0000B4628462146FFF7DFFD70BDFFFFFF7F66
:1009F0001F22030C02D10F22000402D0030E03D0E9
:100A000004E00020014670470002083A030F01D1BC
:100A10000001121F830F01D18000921E002801DB0C
:100A20004000521E120551184205C01241181046CE
:100A30007047C10FC90700D04042012292071143FD
:100A4000D6E701218907D3E7F0B58B4C0F0925467E
:100A500089B0BD437BD01D092646AE43FAD00E4671
:100A60005E402740F60F3E43254071D024012142CD
:100A7000FBD0FF24AD19A4042D1B039501252D05E2
:100A8000DB02DB0AC9022B43C90A29431E01090103
:100A9000040F130F050121431701880B82039143B3
:100AA0002D098C46A90B1E438A039543B30B9A0369
:100AB00096433F09BA0B9403A74302962E467E4302
:100AC0000497B6464E19D7190C460196544305971C
:100AD0007E43371B7646BF1B3601B646BE0B361922
:100AE00000967646BC043719009C01D3641C009420
:100AF0006400002F01D001263443029E049F7543F9
:100B000066467E430496760034196E0034190094CC
:100B1000029C019E1C196643751BAE4606946546F1
:100B20004519059C05956C43594375460891691A0A
:100B30000191049E01465143A41B0491611A009C3B
:100B40000791E10605D061090122114302E072E03C
:100B50006EE06109089D00272C0A2D066918049D86
:100B60007C412A0A2D066918019D6241AC0DAD0237
:100B70006D185441079A910D920255196141029ADC
:100B8000644658435443069B059A5A43121A131B52
:100B90009A0E9B015B187A41010B0005C318514165
:100BA000220A200644195A419A4200D2491C0120C7
:100BB0004002814203D315230226F64302E01423A8
:100BC0000326F6432020C51AA9401746AF40DA4055
:100BD0000A4320460399D84009147318190551187F
:100BE000039A3843D2075140AC4009D001229440C7
:100BF00006D30022401C5141002C01D14008400086
:100C00001E4A934212D3012203989206904207DBB8
:100C10000520400709181A480143C012414004E06A
:100C2000032040070818C10FC907002009B0F0BD14
:100C30000020F107FAE705180C464C4111486D42B7
:100C4000A04115D394181A465A410E486442904167
:100C50000ED301204A004005824209D35A00824245
:100C600006D35940C90F084AC90700201143DDE7E0
:100C700000200649DAE700000000FF07FE07000039
:100C8000FFFFFF7F0000E0FF0000F07F0000F87F23
:100C90000121C9050123411842001B06D3185B0E30
:100CA0000AD0C1100722D206891840075242D14209
:100CB00001D5520089187047090208D50146002A5B
:100CC00003D0C10FC9070020704710467047420289
:100CD00002D0002002497047072109050143F4E7CB
:100CE0000000F87FF0B5FF252D04C609C209FF27D3
:100CF00004462E400137CB093E4348402A402B4052
:100D00000746002A6BD0002B69D0AA4267D0AB42BD
:100D100065D0002800DA32460125ED0529432C4331
:100D200009022002090AD21A4B0C7F24E31A434C11
:100D3000000A7C44E35C7D242404121914145B0033
:100D4000A218884201D3521C00E0400049420C46E0
:100D50005C4324115C43DB016415E318040A5C4323
:100D6000C502200D0C4644436419250A5D43230344
:100D7000EC0C0D46654300030019EB184C42A342EE
:100D800001D35B18401CD4052018002B07D05B0052
:100D9000C91804D3401C002901D1400840003F215C
:100DA00089048A4209D3002A08DC1106090F04D0FD
:100DB000032149074018C00FC007F0BD01224100C0
:100DC000120689187F2252069142F6D20521490760
:100DD000C84201D59010F0BDFF20C005F0BD002F26
:100DE00000DA32461648AA4207D2AB4205D21902AF
:100DF000090E17D0F80FC007F0BDFF2563002D06C0
:100E0000AB42F9D84900A942F6D8AB4201D1A94278
:100E1000F2D0A94201D1002101E061004908D005CA
:100E20000843F0BD1102090EFBD0FF200243D0059C
:100E3000F0BD0A460146104654E700004621000076
:100E40000000C07F0102C21504D00123DB07194353
:100E5000002A0ADB9E239A1A02D40846D040704723
:100E6000FF2241001206914201D900207047C017AD
:100E7000C04370471F22030C02D10F2200041CD074
:100E8000030E01D10002083A030F01D10001121F25
:100E9000830F01D18000921E002801DB4000521E0A
:100EA000D2055118021251181922904004D3491C3E
:100EB000002801D14908490008467047C10FC907F9
:100EC00000D04042012292071143D3E70121890754
:100ED000D0E7000010B5FF22C30D134009D05A40DF
:100EE00007D0914205DA5C42A14202DDC90508182B
:100EF00010BDC40FE407002B06D0002A06D000293D
:100F000002DBFF20C0050443204610BD4102FCD097
:100F1000004810BD0000C07F10B500F039F800682F
:100F200010BD10B5044600F033F8046010BD000099
:100F300070B505464800440D124B0020002C0AD025
:100F4000634008D09A4206DA6642B24203DD1205D7
:100F50004019514170BD002C08D0002B09D0C90F99
:100F6000C907002AF6DB084A114370BDC90FC9073B
:100F700070BD28460A03104302D00020034970BD0B
:100F8000284670BDFF0700000000F07F0000F87FDA
:100F90000048704788030020F8B5224C4E00069D9B
:100FA000A6420AD8A64201D1002806D15E00A64278
:100FB00003D8A6420AD1002A08D00D2424042542D1
:100FC0002CD02946002000F0DAF8F8BD0C461C436E
:100FD0000CD4994202D0EFF30080F8BD904202D0C9
:100FE000EFF30080F8BDEFF30080F8BD092424077B
:100FF000E5008B4206D0EFF30080A043591A06D2D9
:10100000284304E0101A05D3EFF30080A04380F3D7
:101010000088F8BDEFF30080A043F1E7009500F0F1
:10102000C5F8F8BD0000E0FFF0B53D4B02460C46A8
:101030001C400020002C63D03A4D8B4366D0002921
:101040006BDB0B0D1D05A94301252D05294301244B
:10105000FD33E34001D392184941FF3381339C466D
:101060008B02940D0121234389074C4292020027F1
:101070001B198C105D1A04D42D1B02D42B4665005D
:10108000491992185B416408F4D15C1A08D401250F
:10109000ED07EE175519744102D42A462346491C20
:1010A00094185B41012292071D46E61B8D4106D430
:1010B000B61A854103D42B46550034467F192419AE
:1010C0005B415208802AEFD1234300D002233846E7
:1010D0000A22D04001D3012213438A0510436246FD
:1010E000890A12058918002B09D00122D34002D3A6
:1010F0000022401C5141002B01D140084000F0BDAE
:101100000B03134307D0C90FC907F0BD08031043F1
:1011100003D1002901DB1046F0BD00202946F0BDB7
:101120000000F07F0000F87F00487047880300202F
:101130007546FFF7F9FFAE46050069465346C008FD
:10114000C000854618B020B5FFF720F860BC002726
:101150004908B6460026C0C5C0C5C0C5C0C5C0C583
:10116000C0C5C0C5C0C5403D49008D46704710B5DB
:101170000446C046C0462046FEF7E7FF10BDC80241
:1011800012D54803400F002804D0C803C0430121F2
:1011900088407047EFF30080000100090321090730
:1011A000084380F3008870470020704710B5002086
:1011B0000249029A00F004F810BD00000000F87F18
:1011C00010B50C461107090F092904D00A290AD0C5
:1011D00008290CD104E011460820FFF7D0FF06E0F3
:1011E000510606D501E0510601D50120C007214670
:1011F00010BDD10607D501010909CC084907000E29
:101200000006044309E0410F20024907000A014398
:10121000200E00061D22D14101430846E7E70000E9
:1012200001491820ABBEFEE7260002007047704758
:10123000836A0B43836242617047016170470029F2
:10124000816801D0012200E00222114381607047D1
:101250000029C16802D00122114301E04908490078
:10126000C1607047C26802239A43C260C2680A43E1
:10127000C2607047826800210123DB071A43826045
:101280000F231B038268491CD20FD207994201D059
:10129000002AF7D18168002901DB006C704700202B
:1012A000704702460020CB0104D5926801231B063B
:1012B0009A4300E012680A4200D001207047000003
:1012C00030B5C268084B8C681A400B680D7923430F
:1012D000CC686D032C4323430C69496923430B43BA
:1012E0001343C36030BD000003D2FFFF81680422B6
:1012F000114381607047000001220549D205002892
:10130000886801D0104300E0904388607047000077
:10131000002701400122054992050028886801D074
:10132000104300E0904388607047000000270140B0
:1013300010B5184800210122016002710161164CAC
:1013400001462046FFF7BCFF61052046FFF775FF09
:10135000072212492046FFF76BFF0120FFF7CCFF61
:101360000120FFF7D7FF2046FFF784FF0221204628
:10137000FFF778FF01212046FFF76AFF0121204691
:10138000FFF75DFF01212046FFF78BFF0028F9D012
:1013900010BD0000140200200024014001000300E1
:1013A00010B5022000F024F8002805D0022000F03B
:1013B00007F802490120087010BD00000C00002051
:1013C000C10001D5024900E00249486070470000B1
:1013D00000040240000002400029016802D00122FE
:1013E000114301E0014A114001607047FEFF000017
:1013F00002460020D10001D5034900E003490968F5
:10140000114200D001207047000402400000024059
:10141000002A026801D00A4300E08A430260704754
:1014200030B503680C4A0C6A13408A684D69224340
:101430000C692C4322438C692243CC6922434C6AB9
:1014400022438C6A22431A430260CA6842600A68D7
:1014500082604968C16030BD0F80FFFF10B513483E
:1014600011490160124941600021C0228160C260BF
:10147000016180224261520082619200C261202299
:1014800002621202426281620A4C01462046FFF764
:10149000C7FF012202212046FFF7BAFF01212046A3
:1014A000FFF79AFF10BD0000402401402C020020ED
:1014B000940000200800024008490420CA68D207AE
:1014C00001D001207047CA68D20601D502207047BA
:1014D000C9684907FBD5032070470000002002407F
:1014E00002480169802211430161704700200240D7
:1014F000F0B50B2706463F040D46384600F022F8AB
:1015000004280CD1064C2069012108432061358054
:10151000384600F017F82169490849002161F0BDFB
:101520000020024004480169090603D503494160CF
:1015300003494160704700000020024023016745D5
:10154000AB89EFCD00B50346FFF7B6FF02E0FFF72A
:10155000B3FF5B1E012803D0002B00D1052000BD86
:10156000002BF4D1FAE7F0B50022032501230C6823
:1015700093401C409C422AD10C79012C01D0022CB2
:1015800012D1876854002E46A640B74387604E7933
:10159000A64084682643866084889C43848084882F
:1015A0008B7993401C438480066853002C469C40F2
:1015B000A64306600E7907689E403E430660C668F3
:1015C000A643C660CC799C40C3681C43C460521CCF
:1015D000102ACBD3F0BD4B07DB0E9A40C90810B5DB
:1015E00089000818016A0F249C40A1430162016A26
:1015F0001143016210BD0246128A00200A4200D047
:1016000001207047F8B5514F0821384600F0B0F876
:1016100000244F4D00281DD00821384600F09CF8CA
:10162000384600F0BDF800280CD001262E70334655
:1016300020220021474800F063FCAC70B8693043B9
:10164000B861F8BD384600F0ABF80028F9D12C702D
:101650006C70F8BD0221384600F08AF83D4E002833
:1016600011D02878002809D0E888A9784018315C82
:10167000384600F0DCF8A878401CA870A878C82884
:10168000E7D9AC70F8BD0421384600F071F80028A5
:1016900023D0384600F0C8F869787054491CC8B2A5
:1016A0006870E978491CC9B2E970012810D0022994
:1016B000E8D1EC70E9882A793018891889B22B783A
:1016C0000222801E00F01CFC2879401C2871F8BD05
:1016D0003078E880EC702C71F8BD1021384600F0AD
:1016E00047F8002808D01021384600F035F86C7013
:1016F000AC702C71EC70F8BD2021384600F038F841
:1017000000280CD02021384600F026F86C70AC7010
:101710002C71EC700121384600F020F8F8BDFF2450
:1017200001342146384600F023F8002804D0214631
:10173000384600F011F8F8BD0124A40221463846CD
:1017400000F016F80028F2D1F8BD00000054004067
:1017500044000020C0020020C161704700290168D8
:1017600002D00122114301E049084900016070479D
:1017700010B500238A04920E02D00268802404E08F
:101780000A06920F026802D04024224000E00A407C
:101790008069084202D0002A00D00123184610BDFB
:1017A00001468969002001221204114200D09011E3
:1017B0007047002A026801D00A4300E08A430260B1
:1017C0007047000010B502685208520002600268BB
:1017D000134B8C681A4024024B6814432343036064
:1017E0000F230A681B069A430261026801231A4309
:1017F000026000228260C2600B698A691A438260BB
:1018000082680123DB031A438260CA6803681343BA
:1018100003604268034B49691A401143416010BD9F
:10182000FFE0CF00FF7FFF07406AC0B270478162D0
:101830007047000030B5827801240178002A15D065
:101840008B080E4A9B009A1813688907C90EFF255A
:101850008D40AB434578AD072D0E8D401D4315607F
:101860000078C006C00E8440054804E0C806C00EDB
:10187000844003488030046030BD000000E400E094
:1018800000E100E070B5194C172020700020607056
:101890000125A5702046FFF7CDFF132020700420FE
:1018A0006070A5702046FFF7C5FF1520207002204C
:1018B0006070A5702046FFF7BDFF16202070032042
:1018C0006070A5702046FFF7B5FF1B202070657083
:1018D000A5702046FFF7AEFF09202070052060703C
:1018E000A5702046FFF7A6FF70BD0000080000208D
:1018F000044A0029516901D0014300E0814351614C
:101900007047000000100240044A0029D16901D04C
:10191000014300E08143D1617047000000100240A4
:10192000044A0029916901D0014300E0814391619B
:101930007047000000100240034A5168F0239943A9
:10194000014351607047000000100240024900222C
:101950008A7088707047000000100240034A516886
:1019600007231B0299430143516070470010024056
:101970000122054912060028086801D0104300E042
:10198000904308607047000000100240034A51680D
:10199000890889000143516070470000001002402F
:1019A00010B50020FFF7D2FF0020FFF7E1FF002075
:1019B000FFF7ECFF0020FFF7BFFF01208002FFF7D9
:1019C000CDFF0B4C01212046FFF79EFF0021204652
:1019D000FFF79AFF01212046FFF796FF01210548F6
:1019E000FFF79EFF01210448FFF782FF10BD0000B2
:1019F00000012000014206000100020070470000C3
:101A000010B5074C0121204600F024F8012806D12A
:101A10000121204600F011F802490120087010BD94
:101A2000004801403800002080220029018801D0B0
:101A3000114300E0914301807047C9430182704720
:101A40000029018802D00122114301E04908490020
:101A5000018070470246138A002092890B400A4099
:101A6000002B02D0002A00D001207047002A828972
:101A700001D00A4300E08A438281704710B5028892
:101A8000144B984206D00124A407A04202D0124C65
:101A9000A04203D17024A2434C8822430F4CA042A1
:101AA00003D00F4C22400C89224302804A68C26254
:101AB0000A880285984208D00A4A904205D00A4A0C
:101AC000904202D0094A904201D1897A01860121CF
:101AD000818210BD002C0140000400400010004035
:101AE000FFFC00000040014000440140004801406C
:101AF0004900CA020243100000D004204A0D01D060
:101B000001221043044A490D914201D102210843A8
:101B1000012800D105207047FF070000F8B50446F2
:101B20004F1EC8000838211815461E460868496827
:101B30003A4606239A4310D02A463346FEF784FFDE
:101B40003A46D200083AA3181A687F1E5B68FEF76F
:101B5000FBFC06223B469343EED1022F23D0042FF9
:101B600011D0062F2FD12A463346FEF76DFFE36AC8
:101B7000A26AFEF7E9FC2A463346FEF765FF636A70
:101B8000226AFEF7E1FC2A463346FEF75DFFE36971
:101B9000A269FEF7D9FC2A463346FEF755FF636972
:101BA0002269FEF7D1FC2A463346FEF74DFFE36873
:101BB000A268FEF7C9FC2A463346FEF745FF636874
:101BC0002268FEF7C1FCF8BD002210B5134610468E
:101BD0000149FEF7E9FC10BD0000F03F10B5FEF72B
:101BE000B3FC10BD002210B5134610461146FEF797
:101BF000DBFC10BD10B50721024A00200907FFF7E2
:101C000097F910BD01030000034A10B50020110729
:101C1000FFF78EF910BD000001FDFFFFF0B504468F
:101C20006A480023007885B01A461946012821D158
:101C3000664800250570664F2846062545437E5BAD
:101C4000ED193605360DF3186E88AD8836052D056D
:101C5000360D2D0D401CB218691880B24028ECD307
:101C60009802030C59489202120CC3808902028127
:101C7000090C4181A0886946020ACA718871E0880E
:101C8000020A4A7108712089020ACA708870608944
:101C9000020A4A7008700198029000980190E18B46
:101CA0004C48814223D1494F208C7880608CB88089
:101CB000494E0020820011198B8C401C1D0A93197B
:101CC000DD708D8C9D70CD8C80B22D0A5D70C98CBD
:101CD000B1540628EED33068F86070683861B06897
:101CE0007861F068B8613069F86170693862374DC1
:101CF000A888FEF7A6FE07460091E888FEF7A1FE39
:101D000005460E460022354BFEF736FC2A46334682
:101D1000FEF74AFC3A46009BFEF796FEFEF75AFA9B
:101D20000390FFF78FF8A0812D4800902D48049074
:101D30000499009800F05CFF0021C943FFF7CAF83E
:101D4000224E05467088FFF7C1F801460398FEF75A
:101D5000C9FF07462A460199029800F059F839460A
:101D600000F0E4FF07467088FFF7B0F801460398DB
:101D7000FEF7B8FF0646009A0199029800F048F86D
:101D8000314600F0D3FF0146384600F077FF0146A8
:101D90000120C005814201DB009500E00495049913
:101DA000009800F0C3FF10498842C1DA0F49884209
:101DB000BED86846009540882080684600886080CC
:101DC0000248C088FFF782F805B0F0BD0C00002083
:101DD000940000200F0F00005802002000FEAF40CA
:101DE0000AD7233C0000C8426F12833A6F1283BAAD
:101DF00010B5064801210160032101710021C17164
:101E000001460920C006FFF7AEFB10BD30000020E0
:101E1000F7B5174C0F462069FEF73AFF05460E4608
:101E20000298FEF735FF2A46334600F00DF90546C5
:101E30000E463946E06900F021FF216A00F0D8FE25
:101E400007466169009800F019FFA16900F0D0FE13
:101E5000394600F013FFE16800F010FFFEF718FFAD
:101E60002A463346FEF7F0FDFEF7B4F9FEBD00004A
:101E70000C000020F8B50921CF0604223846FFF7F0
:101E8000AAFB04220A213846FFF7A5FB0C4C0320CD
:101E90004002206003266671022020710120A0719B
:101EA0000025E57121463846FFF75DFB10202060D4
:101EB00066712571E57121463846FFF754FBF8BD80
:101EC0004C00002010B50C480021C16041608160C9
:101ED0004161816160210161084C01462046FFF7A4
:101EE00071FC01212046FFF739FC01222E212046FA
:101EF000FFF75FFC10BD0000A4020020005400406A
:101F000070B58C18202C16D8144C154D2488091B3C
:101F10008CB2002B10D0012B0DD1002109E06318E9
:101F20005B00EE5A491C360A0670EB5C437089B2BE
:101F3000801C9142F3D370BD002163005D1909E05C
:101F400003784C001B022B534678491C33432B5318
:101F500089B2801C9142F3D370BD000000000020C4
:101F60005400002008B5FFF71BFDFFF78BFCFFF7BF
:101F70003FFFFFF7DDF9FFF771FAFFF77BFFFFF790
:101F8000A1FF00F03FF81748FFF7B0F9164800909E
:101F900000F058FD144C15481E3C20811448A084C4
:101FA00014480927144D154EE084FF0610213846C9
:101FB000FFF721FB002801D0012100E0002110489B
:101FC000FFF7CCFBA08FA84202D1009800F0A0FD43
:101FD00000F092FD0128E9D103481E38FFF71EFEEC
:101FE0007060E3E7002401407200002088180000C0
:101FF000143F0000E17A00009999000000000020E1
:102000000054004010B50E480C490180C9104160D1
:102010000021018141800B4C01462046FFF72EFD37
:1020200001212046FFF700FD012211462046FFF75F
:102030001DFD01212046FFF703FD10BD9F0F00008D
:102040009802002000480140F0B51FB496B08446C5
:102050000C460246199D18980390490068006300D9
:10206000490840080193002A01D0012600E000261B
:102070009E19FE4BF6185B109E422BD36E00039FF9
:102080000296002F00D00127F719F84EF84BBE1921
:102090009E421FD3039E0346F64F334309D03B466F
:1020A0009C4201D1002A04D0019B002A05D00126C0
:1020B00004E0002039461BB0F0BD00269E19EE4B0F
:1020C0009E4207D8039F029E002F00D00127F619D9
:1020D0009E4207D92B4660462146189AFFF77EFD9F
:1020E0001BB0F0BD0023002C29DAE44EB04226DA02
:1020F000E34EB04201DB022321E0DE4EB0421EDBA4
:10210000E04E070DBE19142E09DD3427BF1B039EB8
:10211000FE400196BE40039FBE420BD00FE0039FDE
:10212000002F0CD11427BF1B0646FE400196BE406F
:10213000864204D1019BDE07F60F02239B1B0E464D
:10214000164318D1002D16DA002C03D0022B01D033
:10215000012B06D00220FEF7E4FEFFF735FD1BB091
:10216000F0BD0220FEF7DDFEFFF72EFD0122D207B3
:1021700051401BB0F0BD039E002E61D1BF4EB04256
:1021800020D1C148844201D1002A08D0B9488142F7
:1021900009DB002D10DB189829461BB0F0BD00208C
:1021A000B4491BB0F0BD002D06DA01222946D20742
:1021B000189851401BB0F0BDB4497944086849688B
:1021C0001BB0F0BDAB4FB84225D1002D1FDA00295E
:1021D00004D0B14212D1002A09D018E0002A72D1ED
:1021E000A649E20F0020D20711431BB0F0BD00202A
:1021F000E20F0146D20711431BB0F0BDB14206DA2F
:10220000234600203946FEF7CFF91BB0F0BD10463B
:1022100021461BB0F0BDB14212DA0126B607B54225
:1022200003D1234610461946FEE3994EB54207D125
:10223000261E05DB1046314600F03AFC1BB0F0BD0F
:1022400067007F081646002A40D100290AD08B4A31
:10225000914229D1002C0EDD002D1CDB00201146FF
:102260001BB0F0BD022B16D0002C14D0012B12D1C4
:10227000002C14DB0FE0002C28DA002D09DB012BE9
:1022800003D000207D491BB0F0BD002081491BB068
:10229000F0BD012B03D0002001461BB0F0BD002093
:1022A0000121C9071BB0F0BD724A91420ED1002C2A
:1022B00001DA002B17D0022B06D00020C043FEF716
:1022C000B8FB1BB0F0BD90E20120F8E7E217521C0A
:1022D00094461A4307D000220892664C62465B1E61
:1022E0001A4307D009E00120FEF71BFEFFF77AFC36
:1022F0001BB0F0BD0022644C0892674A90427DDD1D
:10230000664B674A98421FDD914202DC002D05DBD7
:102310004DE05848814217DB002D48DD0220FEF7D2
:1023200000FEFFF767FC05460E460022534B214690
:102330000898FEF789FB084671004908C00FC007DE
:10234000014328461BB0F0BD914215DA002D2EDA6C
:102350000220FEF7E6FDFFF74DFC05460E46002283
:10236000464B21460898FEF76FFB72005208C80FD3
:10237000C0070243114617E03E4B994223DD002D72
:1023800015DD0220FEF7CDFDFFF734FC05460E46B5
:1023900000223A4B21460898FEF756FB084671008A
:1023A0004908C00FC007014328461BB0F0BD0220FA
:1023B000FEF7B7FDFFF728FC49004908E20FD207F6
:1023C00011431BB0F0BD002230463946FEF7C9F874
:1023D000012205460E46D243FEF7AAFD314A324B92
:1023E000FEF7CAF82A463346FEF72EFB0022284B9A
:1023F000FEF7C2F807462A46334600E064E0039140
:1024000010461946FEF720FB3A46039BFEF71CFBDD
:102410000746032209915207244B28463146FEF70E
:1024200013FB07910C90224A204B38460999FEF77E
:102430000BFB074601911F4A1F4B28463146FEF70A
:1024400003FB3A46019BFEF78CF807460B46024613
:10245000099107990C98FEF777F800250E46284653
:10246000079B0C9AFEF77DF83A4627E0FFFF1F0016
:10247000FFFF0F000000F03F0000E0FF0000F07FD2
:102480000000404301FCFFFF0000F0BF8A0D000088
:102490000000E03F0000F0FF0000E0410000F043DA
:1024A000FFFFEF3F555555555555D53F4715F73F5C
:1024B000FE822B6544DF5DF80BAE543E099BFEF7B0
:1024C0005BF802460B4652E1012500202D05A9428A
:1024D00007DA352230463946FEF72AFD0646342013
:1024E000C0430A151218FE48101803900803FD494E
:1024F000000B01430F46FC49884201DC002003E049
:10250000FA49884202DA0120119005E0002011907A
:102510000398401C7F1B039011980597C200F44854
:102520000F927844801843680268394630460D930C
:102530000292FEF716F807910C9030460D9B029A16
:102540000599FEF701F802460B460020E549FEF723
:102550002BF809910490079B0C9AFEF775FA1290DC
:1025600000201090E3480D46784400680E90012149
:1025700078104907084311990D9B890440180121DF
:10258000C90447183946029A0E98FDF7EAFF324609
:10259000059BFDF7F1FF02460B4629461098FEF712
:1025A00053FA064602913B4629460E9A1098FEF7CA
:1025B0004BFA079B0C9AFDF7DFFF3246029BFDF7B3
:1025C000D0FF099B049AFEF73FFA0591129A0A90F0
:1025D0002B4610461946FEF737FA06460246C6480D
:1025E0000F460B4606217844FFF798FA32463B46E1
:1025F0000091049010461946FEF726FA009B049AB3
:10260000FEF722FA06460F462B461946129A1098F4
:10261000FDF79AFF059B0A9AFEF716FA32463B46EB
:10262000FDF792FF109A079104902B461046194629
:10263000FEF70AFAB14E0022334609910290FDF7E7
:1026400083FF079B049AFDF77FFF002007460246A1
:1026500033460091FDF785FF099B029AFDF781FF44
:10266000079B049AFDF788FF06460D913A462946D6
:10267000009B1098FEF7E8F907910C902B46304626
:10268000129A0D99FEF7E0F905460E463A46009B70
:1026900005990A98FEF7D8F933462A46FDF754FF04
:1026A00002460B460746099107990C98FDF74CFF27
:1026B00000250E462846079B0C9AFDF752FF3A4626
:1026C000099BFDF759FF07460722099152078C4BDA
:1026D00031462846FEF7B8F907910090894A884BA1
:1026E00038460999FEF7B0F907460191864A874BAB
:1026F00031462846FEF7A8F93A46019BFDF724FF2C
:10270000834B7B440F9A9B181A685B68FDF71CFF8C
:10271000029009910398FEF78CF905910490099BAA
:10272000029A07990098FDF70FFF7A4B7B440F9AA6
:102730009B181A685B6817460393FDF705FF059B16
:10274000049AFDF701FF0E462846059B049AFDF703
:1027500008FF3A46039BFDF704FF079B009AFDF72D
:1027600000FF099B029AFDF707FF02460B461999E5
:1027700000200C900F461898FEF766F9029104901D
:102780003B460C9A19991898FDF7EBFE2A463346FA
:10279000FEF75AF9029B049AFDF7D6FE09910E90B6
:1027A0002A46334639460C98FEF74EF906460F4640
:1027B000099B0E9AFDF7C8FE574A0D46914220DB51
:1027C0005242AA18024310D132463B46FDF7C9FED9
:1027D00004900391514A524B09990E98FDF7B4FEAB
:1027E000039B049A00F0D0F91ED20220FEF799FB59
:1027F000FFF700FA49004908E20FD20711431BB066
:10280000F0BD6A00474B52089A420DD3464AAA18B7
:10281000024300D0CBE532463B46FDF7A2FE099BC2
:102820000E9A00F0B1F9F5D96800002340082C4950
:102830000393020D3D4B5218984223DD0120000501
:10284000521CD04042195000400D4018384979447C
:10285000096813468C463749C1408B431203012156
:10286000120B090551181422101AC1400391002DB2
:1028700001DA48420390624630463946FDF771FE60
:1028800006460F4632463B4609990E98FDF75CFE18
:1028900000252A46284B28460591FEF7D5F80791D2
:1028A0000C90264A264B28460599FEF7CDF8009154
:1028B000029032463B4628460599FDF752FE099B99
:1028C0000E9AFDF759FE1F4A1F4BFEF7BDF8009BFD
:1028D000029AFDF739FE07460B460246099135E09C
:1028E00001FCFFFF0000F03F8E9803007AB60B005A
:1028F0009A090000DC0900000609000000000840F9
:1029000009C7EE3FFD033ADCF5015B14E02F3EBE44
:10291000DA070000A007000000009040FE822B654F
:102920004715973C00CC904000346F3F0000E03FDB
:10293000F6060000FFFF0F00432EE63F396CA80C9F
:10294000615C20BEEF39FAFE422EE63F07990C98F3
:10295000FDF7FAFD05460E46079B0C9AFDF701FEB2
:102960003A46099BFDF708FE09912A4633460E9028
:1029700010461946FEF768F8074602462F480B46F0
:10298000059105217844FFF7C9F83A46059BFEF703
:102990005BF82A463346FDF7EFFD074601912846CE
:1029A0003146099B0E9AFEF74FF8099B0E9AFDF7E8
:1029B000CBFD012304910C9000229B07384601991E
:1029C000FDF7CFFD05910E903A4628463146019B12
:1029D000FEF73AF8059B0E9AFDF7E6FD049B0C9A6C
:1029E000FDF7BFFD2A463346FDF7BBFD0022144B21
:1029F000FDF7C2FD064603980D460005411909156D
:102A0000002912DC30462946039AFEF791FAFFF7B7
:102A10006FF8042801D1FFF7F7F830462946039AEA
:102A2000FEF786FA064601E004E029180B46324616
:102A300021460898FEF708F81BB0F0BD9805000085
:102A40000000F03F00B50346002100F017F80A49E6
:102A500040180BD002280BD006280BD00E2804D12A
:102A60000F220021184600F011F800BD0322F8E7FC
:102A70000B22F6E71322F4E7FFF0FFFF02484900BC
:102A80000818008870470000003C0008074B490008
:102A900010B5CB18002105E01C880480491C801C5F
:102AA000C9B29B1C9142F7D310BD0000003C000846
:102AB000F8B506460C46FEF7B7FA051E0F4600D0DD
:102AC0000120014349000B484908411AC90F0DD0A4
:102AD000002E01D0012100E000210C4361004908D3
:102AE000401AC00F02D10120FEF71BFA28463946D2
:102AF000F8BD00000000F07F04480178012901D0F2
:102B0000002070470021017001207047380000202C
:102B100010B503460021FFF7B1FF0C49884212D1DE
:102B200018880B49411807D0022907D006290BD075
:102B30000E2908D10F2202E0032200E00B2200211F
:102B4000184600F007F810BD1322F8E7FFFF000059
:102B5000FFF0FFFFF8B515460E460746FEF7E2FC0C
:102B6000002409E06000395A301942000548101865
:102B7000FEF7BEFC641CE4B2AC42F3D3FEF7B0FC3B
:102B8000F8BD0000003C000870B501251C002D05B3
:102B90000C4310D4EC4206D4AC420AD48B4200D091
:102BA00070BD824270BDEB4217D4E94215D48B420E
:102BB00070BD9B4270BDEC4206D5AC42F9D599423E
:102BC00000D070BD904270BD6D005C00EC4204D23C
:102BD0004C00EC4201D2994270BD0FB4034C0CBCC6
:102BE00003BC30B4FEF7D8F930BC70BD1900160430
:102BF00070B501250400ED074C4020D4441A01D2E1
:102C0000001B0919C60D4B00F2B2FF2A29D01B0E7A
:102C10002CD000020C02D31A2C43DC4028430519A7
:102C200010D2280A02D3401C6D0611D0761EF6057C
:102C30008019FF2A00DA70BDC00DC00570BD694063
:102C400000F07AF801200543C541521C761CE8E7E4
:102C500064089C40C90161408900E7D10124A04378
:102C6000E4E71B0E440200D0034870BD002AFCD1EB
:102C7000C00FC00770BD00BF0000C07F70B542002C
:102C800064414B005C41120E39D01B0E38D0FF2A34
:102C90003CD0FF2B3AD040024902400A490A0600C4
:102CA00045184E43000A090AD2184843ED017F3AFD
:102CB0000104731A4019190C4318990F04D001210B
:102CC0005B0849075B1A521CD80904D3401CF50362
:102CD00001D19D0607D0FF2A08D2D50506D0E4070A
:102CE0002043401970BD0125A843F4E7002A01DC08
:102CF000E00770BD2402FF202043C00570BD1B0EFD
:102D0000FF2A03D0FF2B01D0E00770BDFF2645004E
:102D10003606B54206D84D00B54203D8D218FF2A70
:102D200000D0E7E7004870BD0000C07F70B5012506
:102D30000400ED074C4022D4441A02D26C40001B20
:102D40000919C60D4B00F2B2FF2A4BD01B0E50D012
:102D500000020C02D31A2C43DC40A843051B05D506
:102D6000AD0019D36D08761E521E37D0F605280A1D
:102D700001D2801970BD70416D0603D070BD6940ED
:102D8000FFF73CFF9C4009026140490001D0401E12
:102D900070BD0124A04370BD6D081DD001202B0C17
:102DA00001D12D0410302B0E01D12D0208302B0F34
:102DB00001D12D01001DAB0F01D1AD00801CEB0F27
:102DC00001D16D00401C6D00361A121A680AF50513
:102DD0004019012A02DB70BD002070BDC036300AE8
:102DE000C00770BD1B0E440201D1FF2B00D1024869
:102DF00070BD002AF0D070BD0000C07F80807F7E53
:102E00007D7C7B7A79787776767574737271717060
:102E10006F6E6E6D6C6C6B6A6A6968686766666512
:102E20006464636362616160605F5F5E5E5D5D5CA0
:102E30005C5B5B5A5A595958585757565655555511
:102E40005454535352525251515050504F4F4F4E71
:102E50004E4D4D4D4C4C4C4B4B4B4A4A4A494949BF
:102E60004848484747474746464645454544444401
:102E7000444343434342424242414141818283842D
:102E800085868788898B8C8D8E8F91929395969766
:102E9000999A9C9D9FA0A2A3A5A7A8AAACAEB0B2E8
:102EA000B3B5B7B9BCBEC0C2C5C7C9CCCED1D4D7E3
:102EB000D9DCDFE2E6E9ECF0F3F7FAFE000000000F
:102EC000000000000000F03F000000000000F83F9C
:102ED00000000000000000000000004003B8E23FD6
:102EE000000000000000000006D0CF43EBFD4C3E88
:102EF000033333333333E33FFFAB6FDBB66DDB3F7D
:102F00004D268F515555D53F01411DA96074D13FC4
:102F100065DBC9934A86CD3FEF4E454A287ECA3FBE
:102F20003E5555555555C53F93BDBE166CC166BF40
:102F30002CDE25AF6A56113FF16BD2C541BDBBBE39
:102F4000D0A4BE726937663E000000000000000099
:102F5000702F00080000002054000000F800000856
:102F6000C42F000854000020940900001401000838
:102F70000000000000000000000000000000DC0570
:102F8000D6010000000000009A99193F000000BF20
:102F9000000000000000803F000000000000803FB3
:102FA0000000000000000000000000000000000021
:102FB0000000000000000000000000000000000011
:042FC000000000000D
:040000050800015995
:00000001FF
